:020000040800F2
:10000000900600208101000893100008911000085C
:1000100000000000000000000000000000000000E0
:100020000000000000000000000000009710000821
:100030000000000000000000951000089910000862
:100040009301000893010008930100089301000840
:100050009301000893010008930100089301000830
:100060009301000893010008930100089301000820
:100070009301000893010008930100089301000810
:1000800093010008A51000089301000893010008DF
:1000900093010008930100089301000893010008F0
:1000A00093010008930100089301000893010008E0
:1000B00093010008930100089301000893010008D0
:1000C00000F002F800F04CF812A030C808382418EC
:1000D0002D18AC4201D100F043F80FCCA246AB463C
:1000E0000CA730CF2D1B083F3F197C427F1E544484
:1000F0002D090426F441641EAC4201D300F030F80F
:100100000126334200D0FB1A3343984754465D46DC
:10011000DFE70000BC140000DC140000103A02D33A
:1001200078C878C1FAD8520701D330C830C101D598
:1001300004680C6070470000704700000023002432
:1001400000250026103A01D378C1FBD8520700D30E
:1001500030C100D50B6070471FB51FBD10B510BD75
:1001600000F04DF81146FFF7F7FF00F0F1FF00F047
:1001700065F803B4FFF7F2FF03BC00F06BF8000072
:100180000748804707480047FEE7FEE7FEE7FEE72F
:10019000FEE7FEE704480549054A064B70470000A4
:1001A000A1100008C1000008900000209006002067
:1001B000900200209002002001E004C0091F0429E1
:1001C000FBD28B0701D50280801CC90700D00270CA
:1001D000704700290BD0C30702D00270401C491E93
:1001E000022904D3830702D50280801C891EE3E71D
:1001F0000022EEE70022DFE7704770477047754640
:1002000000F024F8AE46050069465346C008C00019
:10021000854618B020B5FFF7BDFF60BCB646002686
:100220000027C0C5C0C5C0C5C0C5C0C5C0C5C0C504
:10023000C0C5403D490849008D46704710B5044689
:10024000C046C0462046FFF794FF10BD00487047E7
:100250001000002001491820ABBEFEE72600020076
:1002600070470000F0B591B067480024046004AD09
:10027000281D3021FFF7BEFF0D94102008900126A5
:10028000079602200490284600F094FC002803D032
:10029000EFF3108072B6FEE70394029401940720F6
:1002A00000906846214600F0C7FB002803D0EFF31A
:1002B000108072B6FEE7B004544A11680143116021
:1002C000F00411680143116051A004A90A4628C82E
:1002D00028C2A8C8A8C2534D284600F079FA0320C6
:1002E0008105514A13688B431360F10513680B4372
:1002F0001360F10253680B4353600F231903576ACD
:100300008F4357623103576A0F435762810617685C
:100310008F431760F10617680F4317607103576822
:100320000F4357601B05576A9F43576205231B0500
:10033000576A1F435762030717689F4317603307C5
:1003400017681F431760B30357689F435760976947
:100350001F4397612A6882432A60286830432860D7
:100360006868B0436860A8693043A861B005274B4E
:100370009A6802439A602D480246083A2C4B136053
:100380000246183A1368334313600246143A146065
:100390001368D2241C431460730414681C43146053
:1003A000B30214689C43146013680B431360026823
:1003B00012210A4208D102680A4205D102680A42A3
:1003C00002D102680A42F2D001682021016101686D
:1003D000890708D40168890705D40168890702D410
:1003E00001688907F3D50B2101610168490608D42A
:1003F0000168490605D40168490602D40168490626
:10040000F3D511B0F0BDC0467000002014100240BA
:10041000C003000001000000000000000000000018
:100420000000000000080048000400481858004080
:10043000130F4210F0B587B0D74900270F60086846
:10044000D22206921043086001252A04086805920A
:10045000104308600868D14A104008606B030868C0
:10046000184308604C691220044208D14C690442C8
:1004700005D14C69044202D14C690442F2D04C6966
:1004800028244C624C69640608D44C69640605D47F
:100490004C69640602D44C696406F3D50F600C689D
:1004A000069A14430C600C68059A14430C60AA0267
:1004B0000C68049214430C600C681C430C604A697D
:1004C0001424224208D14A69224205D14A692242B3
:1004D00002D14A692242F2D02A0203924A69D20624
:1004E000029705D5AE4F3A68039E32433A60029FA9
:1004F0004A69520608D44A69520605D44A69520626
:1005000002D44A695206F3D50A6A00920F600A685B
:10051000069E32430A600A68059E32430A600A68F2
:100520009E4E32400A600A681A430A604A690242D3
:1005300008D14A69024205D14A69024202D14A6998
:100540000242F3D04A6929224A624A69520608D413
:100550004A69520605D44A69520602D44A695206CB
:10056000F3D50F600A68069E32430A600A68059E4A
:1005700032430A600A68049E32430A600A681A43DA
:100580000A604A69224208D14A69224205D14A6971
:10059000224202D14A692242F3D04A69D20605D5E5
:1005A0007F4F3A68039E32433A60029F01954A6941
:1005B000520608D44A69520605D44A69520602D442
:1005C0004A695206F3D50A6A0F600D68069E3543E4
:1005D0000D600D68059E35430D600D686F4E35400A
:1005E0000D60009DEDB2120252196E4D2A800D6809
:1005F0001D430D6012B200924A69024208D14A6955
:10060000024205D14A69024202D14A690242F3D04C
:100610004A692A224A624A69520608D44A6952063D
:1006200005D44A69520602D44A695206F3D50F60CE
:100630000A68069D2A430A600A68059D2A430A60E3
:100640000A68049D2A430A600A681A430A60019DE9
:100650004A69224208D14A69224205D14A692242A6
:1006600002D14A692242F3D04A69D20605D54C4FDD
:100670003A68039E32433A60029F4A69520608D4A0
:100680004A69520605D44A69520602D44A6952069A
:10069000F3D50A6A02920F600A68069E32430A6026
:1006A0000A68059E32430A600A683C4E32400A607E
:1006B0000A681A430A604A69024208D14A6902423A
:1006C00005D14A69024202D14A690242F3D048691F
:1006D0002B2048624869400608D44869400605D482
:1006E0004869400602D448694006F3D50F6008689F
:1006F000069A104308600868059A10430860086865
:10070000049A10430860086818430860486920424A
:1007100008D14869204205D14869204202D1486980
:100720002042F3D04869C006039C1D4E02D53068B4
:10073000204330604869400608D44869400605D423
:100740004869400602D448694006F3D50298C0B211
:10075000096A0902081813494880104A4032316872
:100760001140316002B2104910488A4201DD402236
:1007700002E0824203DA8022336813433360009A36
:100780008A4201DD6C0202E01146824202DA3068E0
:100790002043306007B0F0BD04580040FFFBFFFF6E
:1007A000140800487000002014050000ECFAFFFF58
:1007B000B0B5044600F0D2F80546601C02D084486B
:1007C0000078041900F0CAF8401BA042FAD3B0BD6B
:1007D000F0B589B001900A68002A00D1B5E00D4655
:1007E0005B48019B834201D0052000E004201721D3
:1007F000C9065918890A9B0559180091042900D384
:10080000009000231C461F4607950AE01143316003
:100810007F1C2A681046F8401B1DA41C002800D12C
:1008200093E001260396BE403240F1D00292069337
:1008300003200146A140C9436A68154605406B1E66
:10084000012B059213D8049101998868049B1840E4
:10085000079BDB68A34003438B60D006C00FB84002
:100860004B68B3430E4604990343736006E0032DBF
:10087000019E03D10546069B029A20E0F0680840DD
:10088000079B9B68A3400343F360022D069B029ADB
:1008900015D11C20184004910F218140FB089B00BA
:1008A000F3181D6A8D43079E3169814029431962FF
:1008B0000499069B7068019E032505900540A5409C
:1008C000306808402843306005988003800F079DFA
:1008D0009ED04A490868039D28430860086828405C
:1008E00008900C2018400F21814003233D469D4372
:1008F000089B194EAB598B43009981401943A9516C
:10090000079D144EB1686868C3020BD51143B160EE
:10091000F16883020BD49143F160716883030BD4B7
:1009200091430AE09143B160F1688302F3D511432A
:10093000F16071688303F3D51143069B71603168E0
:10094000C00300D562E7914361E709B0F0BDC0463E
:1009500000100048000401400800014005480068FC
:100960007047C0461A48007802490A6810180860A3
:100970007047C0468800002080B585480168102275
:100980000A430260032000F005F800F023F800207D
:1009900080BDC04670B504467D20C0000C4E317845
:1009A00000F002FD01468248006800F0FDFC00F006
:1009B00055FB0125032C08D8002806D10025E84363
:1009C00021462A4600F01CF87460284670BDC046D7
:1009D0000400002082B0094801680122114301602F
:1009E0000168114001910199110742680A43426070
:1009F000406808400090009802B07047181002400C
:100A0000002805D40322034693430A4A9A1803E0B8
:100A10000C220240064BD2188007C00E8901C9B2D1
:100A20008140FF238340106898430843106070475B
:100A300014ED00E000E400E0F0B581B0002846D0FD
:100A40000446534A1368012003408B4208D21368BE
:100A50000126B3430B431360126832408A4237D1F8
:100A6000009121688A074B4B10D54A0706D507220B
:100A700012021B681343474A1360464B1A68F0235F
:100A80009A43A3681343434A1360424BC90722D1D8
:100A90003F49086801263040009A904205D908680D
:100AA000B04308600868C00712D12078400706D517
:100AB0000720000219688143E068084318601A683B
:100AC0001007810F3548022912D2044650E0012652
:100AD000304601B0F0BD616803290DD01A1F02290C
:100AE0000FD0012912D1126892030646F0D511E009
:100AF000032926D12A4C3BE01A6B92030646E7D520
:100B000008E0126892010646E2D503E012689207F7
:100B10000646DDD518680326B04308431860FFF782
:100B20001DFF07461C4D1B4B18680C2101406068D7
:100B300080008142ACD0FFF711FFC01BA842F2D960
:100B4000C6E70321CB031349896A0F240C401549DA
:100B5000095D94021A40240F134D2C5D9A4202D075
:100B600033049A4200E00E4800F01EFC4443094B57
:100B700018680006000F0D49085CC4400C4804606A
:100B80000320FFF707FF0026304601B0F0BDC04646
:100B900000200240041002408813000000127A0076
:100BA000006CDC02BE150008AE1500089E1500089A
:100BB0000C000020F0B587B004460120002C00D1C5
:100BC00045E204902078C007F94E05940CD0716876
:100BD0000C200140042900D090E03068800303D548
:100BE0006068002800D120E12078800721D5706856
:100BF0000007800F0ED070680C210140082900D03A
:100C00009DE00320C003716801400120C0038142C0
:100C100000D094E030688007059C03D5E068012887
:100C200000D002E13068F82188432169C9000143FE
:100C30003160059C2078000724D42078400737D401
:100C40002078C00600D4D3E005984069411D00D14A
:100C5000C2E0012800D030E1706B042101437163D0
:100C6000706B012101437163FFF778FE0546706BDD
:100C7000800700D5B4E0FFF771FE411B0320022975
:100C8000F5D9E4E1706AE169002900D181E0012130
:100C900008437062FFF762FE0546706A8007CCD495
:100CA000FFF75CFE401B0228F7D9032007B0F0BD18
:100CB000012003900107F0690840029006D1F06915
:100CC0000843F061F0690840069006980191E14FF1
:100CD0003868C0054AD40398040238682043386055
:100CE000FFF73CFE0546386820423FD1FFF736FE4D
:100CF000401B6428F7D9032007B0F0BD716801409C
:100D0000082908D10320C0037168014001200004B4
:100D1000814200D161E7616801204704002900D1C8
:100D200017E1052900D12BE1012900D12CE10104B3
:100D300032688A43326081043068884327E1306832
:100D4000059CE168002936D0012108433060FFF797
:100D500005FE05463068800700D563E7FFF7FEFD16
:100D6000401B0228F6D9032007B0F0BD0598806823
:100D7000002800D1B6E0052800D1C9E0012800D143
:100D8000CAE0306A039988433062306A042188439C
:100D9000C5E0012188437062FFF7E0FD0546706AF7
:100DA000800700D449E7FFF7D9FD401B0228F6D998
:100DB000032007B0F0BD012188433060FFF7CEFD6E
:100DC00005463068800700D433E7FFF7C7FD411BB5
:100DD00003200229F5D93AE1706B0421884370633E
:100DE000706BF821884305998969C90001437163D3
:100DF0000598007880060BD571680C2001400C29FD
:100E000039D1706B800303D50598006A01280CD195
:100E10000598446A002C00D1E1E070680C21014083
:100E2000082905D1012C00D0C4E0049807B0F0BD1A
:100E30000120020631680492914331604706FFF7B2
:100E40008DFD0546022C0BD1049C3068384200D140
:100E5000DEE0FFF783FD411B03200229F5D9F6E010
:100E60003068384200D1BAE0FFF778FD411B03201B
:100E70000229F5D9EBE071680140082905D103206A
:100E8000C003716801408142BBD0706B0599096A4B
:100E9000002900D1A9E001210A04104370634C0429
:100EA000FFF75CFD0546706B2042B1D1FFF756FDA0
:100EB000411B03200229F6D9C9E0706B04210143CC
:100EC0007163706B012188437063FFF747FD05462E
:100ED000706B80078CD5FFF741FD411B0320022971
:100EE000F6D9B4E0306A039988433062306A04214D
:100EF00088433062584CFFF731FD0546306A800761
:100F00001DD5FFF72BFD411B0320A142F6D99EE022
:100F1000306A042101433162306A03990843306228
:100F20004D4CFFF71BFD0546306A800707D4FFF7DD
:100F300015FD401BA042F7D9032007B0F0BD029871
:100F40000028059C00D07BE6F06901998843F06198
:100F500076E6010432688A43326080043168814356
:100F60003160FFF7FBFC0546059C3068384200D134
:100F70003AE6FFF7F3FC411B03206429F5D966E04C
:100F8000810432680A4332600104306808433060EB
:100F9000FFF7E4FC05463068384200D024E6FFF74E
:100FA000DDFC401B6428F6D9032007B0F0BDC04625
:100FB000001002400320C20370680240F16A059CE1
:100FC000A36A9A42049D0DD10F221140236B9942CE
:100FD00008D191040840E16A8842284637D10020B0
:100FE00007B0F0BD284607B0F0BD01210A049043C8
:100FF00070634C04FFF7B2FC0546706B204200D1D1
:1010000006E7FFF7ABFC411B03200229F5D91EE0E0
:10101000F06A0F218843059A116B0143F1627B202E
:10102000C00371688143D06A0843916A01437160CB
:10103000306820433060FFF791FC04463068384246
:10104000CDD1FFF78BFC011B03200229F6D907B095
:10105000F0BDC0460070004088130000401E010E25
:1010600001D0012070470749074A506007480368CC
:101070000B40032189075918016000209060072167
:1010800011607047FFFFFF0010E000E020ED00E07E
:10109000FEE7FEE77047704780B5FFF763FC80BD51
:1010A0007047000070B522480168224A8918224C16
:1010B000E180B7490160A088E1884000401A2081A2
:1010C00020896188081860800220215E1920C001F3
:1010D0001A4A914200DB608019490A7823895343F8
:1010E000497862884A43D11809B21F30814206DC30
:1010F000C8174D118543E8B2642804D90AE0642575
:10110000E8B2642806D80F4E31684843642100F0E5
:101110004BF9B06025700C480168490701D5006C97
:1011200060700A48016801229143016070BDC046A9
:10113000240400400180FFFF7C000020810C00009F
:10114000000000202C20004000240140101000402E
:10115000204C00206060FFF70FFC0122D0041E49E4
:101160000B6803430B60052003041C480546083D3B
:101170002E681E432E60031F1D68194E35401D60EA
:101180000368184D2B40036043682B404360C368DD
:101190003340C36052040B6813430B600321C943FF
:1011A0000922D20613680B40136002680A400260ED
:1011B000416802220A43426000F018F8FFF752F833
:1011C000094D2868A060FFF735F98020FFF7F0FA95
:1011D000F7E7C046700000201410024008080048DD
:1011E000FFFCFFFFFFFFF0FF24000040F0B583B0DD
:1011F0000125690202910920C206106808431060A7
:101200002E021068B043019610600F200304146A88
:101210009C431462A9040091136A0B431362800279
:101220001368834313600527B802136803431360F0
:101230005069202303435361506940239843506110
:101240004E490868304308600E464D48002303604D
:1012500083610362816968240C438461016A2943C4
:10126000016285624B210901C16243630168294320
:101270000160304608380168009C21430160380253
:1012800040490C6884430C6078020C6804430C608D
:10129000112000040C6A04430C62344630680226B4
:1012A00030432060384FBB613B62BB603B60B86934
:1012B000019908432843B861B86803210143B96024
:1012C0003248F862324878623968294339602746E3
:1012D000216810240C433C602E490B248C622E4C58
:1012E000CC62CC682C43CC600C682C430C60690445
:1012F0002A4C2160FF210902294C27688F433818A6
:10130000401C206010680C21014311601B48001F25
:101310000168029A1143016022494B6068034A68E0
:1013200002434A60086A304308620B60E8070A68B3
:1013300002430A600868002808D50868002805D517
:101340000868002802D508680028F3D408682843F4
:101350000860084608380268D20708D10268D20738
:1013600005D10268D20702D10068C007F1D0086831
:10137000042202430A6003B0F0BDC0461C100240C4
:10138000002000400004004800040040FFFF00006F
:10139000FF7F0000001000403075000000E100E019
:1013A00010E400E00824014043088B421AD30022D5
:1013B00003098B4279D3030A8B425ED3030B8B4222
:1013C00042D3030C8B4227D30902FF2212BA030C2B
:1013D0008B4202D31212090203D0030B8B4233D388
:1013E0001AE0D3E0411A8041401C704703460B438A
:1013F00071D443088B42F5D3002203098B4254D3A6
:10140000030A8B4239D3030B8B421DD3030C8B424F
:1014100002D394466EE0090AC30B8B4201D3CB037F
:10142000C01A5241830B8B4201D38B03C01A524125
:10143000430B8B4201D34B03C01A5241030B8B4227
:1014400001D30B03C01A5241C30A8B4201D3CB0212
:10145000C01A5241830A8B4201D38B02C01A5241F7
:10146000430A8B4201D34B02C01A5241030A8B42FA
:1014700001D30B02C01A5241CDD2C3098B4201D312
:10148000CB01C01A524183098B4201D38B01C01A90
:10149000524143098B4201D34B01C01A5241030907
:1014A0008B4201D30B01C01A5241C3088B4201D3B6
:1014B000CB00C01A524183088B4201D38B00C01A63
:1014C000524143088B4201D34B00C01A5241411A8A
:1014D000524110007047CA0F00D04942031000D398
:1014E0004042534000229C4603098B422DD3030AFD
:1014F0008B4212D38901FC2212BA030A8B420CD30D
:10150000890192118B4208D3890192118B4204D335
:10151000890137D0921100E08909C3098B4201D3B8
:10152000CB01C01A524183098B4201D38B01C01AEF
:10153000524143098B4201D34B01C01A5241030966
:101540008B4201D30B01C01A5241C3088B4201D315
:10155000CB00C01A524183088B4201D38B00C01AC2
:101560005241D9D243088B4201D34B00C01A524199
:10157000411A00D201465241104663465B1000D327
:101580004042704763465B1000D3404201B50021E2
:10159000004201D0C9430846C046C04602BD000013
:1015A000000000000000010203040607080902030E
:1015B0000405060708090A0B0C0D0E0F1010010296
:1015C000030405060708090A0B0C0D0E0F10000096
:1015D000F015000800000020100000001C010008A9
:1015E0000016000810000020800600003C010008E2
:1015F0000A050000010000000400000000127A004B
:04000005080000C12E
:00000001FF
